{"abi":[{"type":"constructor","inputs":[{"name":"defaultAdmin","type":"address","internalType":"address"},{"name":"_zkVerifier","type":"address","internalType":"address"}],"stateMutability":"nonpayable"},{"type":"receive","stateMutability":"payable"},{"type":"function","name":"ADMIN_ROLE","inputs":[],"outputs":[{"name":"","type":"bytes32","internalType":"bytes32"}],"stateMutability":"view"},{"type":"function","name":"DEFAULT_ADMIN_ROLE","inputs":[],"outputs":[{"name":"","type":"bytes32","internalType":"bytes32"}],"stateMutability":"view"},{"type":"function","name":"createEvent","inputs":[{"name":"locationId","type":"string","internalType":"string"},{"name":"maxSubmissions","type":"uint256","internalType":"uint256"},{"name":"rewardPerSubmission","type":"uint256","internalType":"uint256"}],"outputs":[],"stateMutability":"payable"},{"type":"function","name":"events","inputs":[{"name":"","type":"uint256","internalType":"uint256"}],"outputs":[{"name":"eventId","type":"uint256","internalType":"uint256"},{"name":"locationId","type":"string","internalType":"string"},{"name":"maxSubmissions","type":"uint256","internalType":"uint256"},{"name":"currentSubmissions","type":"uint256","internalType":"uint256"},{"name":"rewardPerSubmission","type":"uint256","internalType":"uint256"},{"name":"isActive","type":"bool","internalType":"bool"}],"stateMutability":"view"},{"type":"function","name":"getRoleAdmin","inputs":[{"name":"role","type":"bytes32","internalType":"bytes32"}],"outputs":[{"name":"","type":"bytes32","internalType":"bytes32"}],"stateMutability":"view"},{"type":"function","name":"grantRole","inputs":[{"name":"role","type":"bytes32","internalType":"bytes32"},{"name":"account","type":"address","internalType":"address"}],"outputs":[],"stateMutability":"nonpayable"},{"type":"function","name":"hasCitizenSubmitted","inputs":[{"name":"","type":"uint256","internalType":"uint256"},{"name":"","type":"address","internalType":"address"}],"outputs":[{"name":"","type":"bool","internalType":"bool"}],"stateMutability":"view"},{"type":"function","name":"hasRole","inputs":[{"name":"role","type":"bytes32","internalType":"bytes32"},{"name":"account","type":"address","internalType":"address"}],"outputs":[{"name":"","type":"bool","internalType":"bool"}],"stateMutability":"view"},{"type":"function","name":"nextEventId","inputs":[],"outputs":[{"name":"","type":"uint256","internalType":"uint256"}],"stateMutability":"view"},{"type":"function","name":"renounceRole","inputs":[{"name":"role","type":"bytes32","internalType":"bytes32"},{"name":"callerConfirmation","type":"address","internalType":"address"}],"outputs":[],"stateMutability":"nonpayable"},{"type":"function","name":"revokeRole","inputs":[{"name":"role","type":"bytes32","internalType":"bytes32"},{"name":"account","type":"address","internalType":"address"}],"outputs":[],"stateMutability":"nonpayable"},{"type":"function","name":"submitNoiseData","inputs":[{"name":"eventId","type":"uint256","internalType":"uint256"},{"name":"encryptedNoiseLevel","type":"uint256","internalType":"uint256"},{"name":"proof","type":"bytes","internalType":"bytes"}],"outputs":[],"stateMutability":"nonpayable"},{"type":"function","name":"supportsInterface","inputs":[{"name":"interfaceId","type":"bytes4","internalType":"bytes4"}],"outputs":[{"name":"","type":"bool","internalType":"bool"}],"stateMutability":"view"},{"type":"function","name":"zkVerifier","inputs":[],"outputs":[{"name":"","type":"address","internalType":"contract MockZKVerifier"}],"stateMutability":"view"},{"type":"event","name":"DataSubmitted","inputs":[{"name":"eventId","type":"uint256","indexed":true,"internalType":"uint256"},{"name":"citizen","type":"address","indexed":true,"internalType":"address"},{"name":"encryptedNoiseLevel","type":"uint256","indexed":false,"internalType":"uint256"}],"anonymous":false},{"type":"event","name":"EventCreated","inputs":[{"name":"eventId","type":"uint256","indexed":true,"internalType":"uint256"},{"name":"locationId","type":"string","indexed":false,"internalType":"string"},{"name":"maxSubmissions","type":"uint256","indexed":false,"internalType":"uint256"},{"name":"rewardPerSubmission","type":"uint256","indexed":false,"internalType":"uint256"}],"anonymous":false},{"type":"event","name":"RoleAdminChanged","inputs":[{"name":"role","type":"bytes32","indexed":true,"internalType":"bytes32"},{"name":"previousAdminRole","type":"bytes32","indexed":true,"internalType":"bytes32"},{"name":"newAdminRole","type":"bytes32","indexed":true,"internalType":"bytes32"}],"anonymous":false},{"type":"event","name":"RoleGranted","inputs":[{"name":"role","type":"bytes32","indexed":true,"internalType":"bytes32"},{"name":"account","type":"address","indexed":true,"internalType":"address"},{"name":"sender","type":"address","indexed":true,"internalType":"address"}],"anonymous":false},{"type":"event","name":"RoleRevoked","inputs":[{"name":"role","type":"bytes32","indexed":true,"internalType":"bytes32"},{"name":"account","type":"address","indexed":true,"internalType":"address"},{"name":"sender","type":"address","indexed":true,"internalType":"address"}],"anonymous":false},{"type":"error","name":"AccessControlBadConfirmation","inputs":[]},{"type":"error","name":"AccessControlUnauthorizedAccount","inputs":[{"name":"account","type":"address","internalType":"address"},{"name":"neededRole","type":"bytes32","internalType":"bytes32"}]}],"bytecode":{"object":"0x608060405234801561000f575f5ffd5b506040516122de3803806122de83398181016040528101906100319190610355565b5f73ffffffffffffffffffffffffffffffffffffffff168273ffffffffffffffffffffffffffffffffffffffff160361009f576040517f08c379a0000000000000000000000000000000000000000000000000000000008152600401610096906103ed565b60405180910390fd5b5f73ffffffffffffffffffffffffffffffffffffffff168173ffffffffffffffffffffffffffffffffffffffff160361010d576040517f08c379a000000000000000000000000000000000000000000000000000000000815260040161010490610455565b60405180910390fd5b61011f5f5f1b8361019860201b60201c565b506101507fa49807205ce4d355092ef5a8a18f56e8913cf4a201fbe287825b095693c217758361019860201b60201c565b508060015f6101000a81548173ffffffffffffffffffffffffffffffffffffffff021916908373ffffffffffffffffffffffffffffffffffffffff1602179055505050610473565b5f6101a9838361028d60201b60201c565b6102835760015f5f8581526020019081526020015f205f015f8473ffffffffffffffffffffffffffffffffffffffff1673ffffffffffffffffffffffffffffffffffffffff1681526020019081526020015f205f6101000a81548160ff0219169083151502179055506102206102f060201b60201c565b73ffffffffffffffffffffffffffffffffffffffff168273ffffffffffffffffffffffffffffffffffffffff16847f2f8788117e7eff1d82e926ec794901d17c78024a50270940304540a733656f0d60405160405180910390a460019050610287565b5f90505b92915050565b5f5f5f8481526020019081526020015f205f015f8373ffffffffffffffffffffffffffffffffffffffff1673ffffffffffffffffffffffffffffffffffffffff1681526020019081526020015f205f9054906101000a900460ff16905092915050565b5f33905090565b5f5ffd5b5f73ffffffffffffffffffffffffffffffffffffffff82169050919050565b5f610324826102fb565b9050919050565b6103348161031a565b811461033e575f5ffd5b50565b5f8151905061034f8161032b565b92915050565b5f5f6040838503121561036b5761036a6102f7565b5b5f61037885828601610341565b925050602061038985828601610341565b9150509250929050565b5f82825260208201905092915050565b7f496e76616c69642061646d696e000000000000000000000000000000000000005f82015250565b5f6103d7600d83610393565b91506103e2826103a3565b602082019050919050565b5f6020820190508181035f830152610404816103cb565b9050919050565b7f496e76616c6964207665726966696572000000000000000000000000000000005f82015250565b5f61043f601083610393565b915061044a8261040b565b602082019050919050565b5f6020820190508181035f83015261046c81610433565b9050919050565b611e5e806104805f395ff3fe6080604052600436106100df575f3560e01c806375b238fc1161007e5780639f9d903a116100585780639f9d903a146102d9578063a217fddf14610303578063d547741f1461032d578063d6df096d14610355576100e6565b806375b238fc1461025757806391d14854146102815780639e9580f6146102bd576100e6565b8063248a9ca3116100ba578063248a9ca31461018f5780632f2ff15d146101cb57806336568abe146101f357806359c77f661461021b576100e6565b806212e0cb146100ea57806301ffc9a7146101125780630b7914301461014e576100e6565b366100e657005b5f5ffd5b3480156100f5575f5ffd5b50610110600480360381019061010b9190610ffa565b61037f565b005b34801561011d575f5ffd5b50610138600480360381019061013391906110c0565b610776565b6040516101459190611105565b60405180910390f35b348015610159575f5ffd5b50610174600480360381019061016f919061111e565b6107ef565b604051610186969594939291906111c8565b60405180910390f35b34801561019a575f5ffd5b506101b560048036038101906101b09190611261565b6108b9565b6040516101c2919061129b565b60405180910390f35b3480156101d6575f5ffd5b506101f160048036038101906101ec919061130e565b6108d5565b005b3480156101fe575f5ffd5b506102196004803603810190610214919061130e565b6108f7565b005b348015610226575f5ffd5b50610241600480360381019061023c919061134c565b610972565b60405161024e9190611105565b60405180910390f35b348015610262575f5ffd5b5061026b61099c565b604051610278919061129b565b60405180910390f35b34801561028c575f5ffd5b506102a760048036038101906102a2919061130e565b6109c0565b6040516102b49190611105565b60405180910390f35b6102d760048036038101906102d291906113df565b610a23565b005b3480156102e4575f5ffd5b506102ed610c64565b6040516102fa9190611450565b60405180910390f35b34801561030e575f5ffd5b50610317610c6a565b604051610324919061129b565b60405180910390f35b348015610338575f5ffd5b50610353600480360381019061034e919061130e565b610c70565b005b348015610360575f5ffd5b50610369610c92565b60405161037691906114c4565b60405180910390f35b5f60035f8681526020019081526020015f209050806005015f9054906101000a900460ff166103e3576040517f08c379a00000000000000000000000000000000000000000000000000000000081526004016103da90611527565b60405180910390fd5b806002015481600301541061042d576040517f08c379a00000000000000000000000000000000000000000000000000000000081526004016104249061158f565b60405180910390fd5b60045f8681526020019081526020015f205f3373ffffffffffffffffffffffffffffffffffffffff1673ffffffffffffffffffffffffffffffffffffffff1681526020019081526020015f205f9054906101000a900460ff16156104c6576040517f08c379a00000000000000000000000000000000000000000000000000000000081526004016104bd906115f7565b60405180910390fd5b5f60405180604001604052808781526020013373ffffffffffffffffffffffffffffffffffffffff16815250905060015f9054906101000a900473ffffffffffffffffffffffffffffffffffffffff1673ffffffffffffffffffffffffffffffffffffffff1663e1ff50828585846040518463ffffffff1660e01b815260040161055293929190611704565b602060405180830381865afa15801561056d573d5f5f3e3d5ffd5b505050506040513d601f19601f82011682018060405250810190610591919061175e565b6105d0576040517f08c379a00000000000000000000000000000000000000000000000000000000081526004016105c7906117d3565b60405180910390fd5b600160045f8881526020019081526020015f205f3373ffffffffffffffffffffffffffffffffffffffff1673ffffffffffffffffffffffffffffffffffffffff1681526020019081526020015f205f6101000a81548160ff021916908315150217905550816003015f81548092919060010191905055508160020154826003015403610672575f826005015f6101000a81548160ff0219169083151502179055505b3373ffffffffffffffffffffffffffffffffffffffff16867fc2af2237b2cd9e2e41495402b40b373744eff683f8123d61e07c0291e166dbe7876040516106b99190611450565b60405180910390a35f3373ffffffffffffffffffffffffffffffffffffffff1683600401546040516106ea9061181e565b5f6040518083038185875af1925050503d805f8114610724576040519150601f19603f3d011682016040523d82523d5f602084013e610729565b606091505b505090508061076d576040517f08c379a00000000000000000000000000000000000000000000000000000000081526004016107649061187c565b60405180910390fd5b50505050505050565b5f7f7965db0b000000000000000000000000000000000000000000000000000000007bffffffffffffffffffffffffffffffffffffffffffffffffffffffff1916827bffffffffffffffffffffffffffffffffffffffffffffffffffffffff191614806107e857506107e782610cb7565b5b9050919050565b6003602052805f5260405f205f91509050805f015490806001018054610814906118c7565b80601f0160208091040260200160405190810160405280929190818152602001828054610840906118c7565b801561088b5780601f106108625761010080835404028352916020019161088b565b820191905f5260205f20905b81548152906001019060200180831161086e57829003601f168201915b505050505090806002015490806003015490806004015490806005015f9054906101000a900460ff16905086565b5f5f5f8381526020019081526020015f20600101549050919050565b6108de826108b9565b6108e781610d20565b6108f18383610d34565b50505050565b6108ff610e1d565b73ffffffffffffffffffffffffffffffffffffffff168173ffffffffffffffffffffffffffffffffffffffff1614610963576040517f6697b23200000000000000000000000000000000000000000000000000000000815260040160405180910390fd5b61096d8282610e24565b505050565b6004602052815f5260405f20602052805f5260405f205f915091509054906101000a900460ff1681565b7fa49807205ce4d355092ef5a8a18f56e8913cf4a201fbe287825b095693c2177581565b5f5f5f8481526020019081526020015f205f015f8373ffffffffffffffffffffffffffffffffffffffff1673ffffffffffffffffffffffffffffffffffffffff1681526020019081526020015f205f9054906101000a900460ff16905092915050565b7fa49807205ce4d355092ef5a8a18f56e8913cf4a201fbe287825b095693c21775610a4d81610d20565b5f8311610a8f576040517f08c379a0000000000000000000000000000000000000000000000000000000008152600401610a8690611941565b60405180910390fd5b5f8211610ad1576040517f08c379a0000000000000000000000000000000000000000000000000000000008152600401610ac8906119a9565b60405180910390fd5b5f8284610ade91906119f4565b9050803414610b22576040517f08c379a0000000000000000000000000000000000000000000000000000000008152600401610b1990611a7f565b60405180910390fd5b5f60025f815480929190610b3590611a9d565b9190505590506040518060c0016040528082815260200188888080601f0160208091040260200160405190810160405280939291908181526020018383808284375f81840152601f19601f8201169050808301925050505050505081526020018681526020015f81526020018581526020016001151581525060035f8381526020019081526020015f205f820151815f01556020820151816001019081610bdc9190611cb9565b5060408201518160020155606082015181600301556080820151816004015560a0820151816005015f6101000a81548160ff021916908315150217905550905050807f42e6867e52299b45991308391cccb9ee79466d194059ff10fc15c2d88f0ea06188888888604051610c539493929190611db4565b60405180910390a250505050505050565b60025481565b5f5f1b81565b610c79826108b9565b610c8281610d20565b610c8c8383610e24565b50505050565b60015f9054906101000a900473ffffffffffffffffffffffffffffffffffffffff1681565b5f7f01ffc9a7000000000000000000000000000000000000000000000000000000007bffffffffffffffffffffffffffffffffffffffffffffffffffffffff1916827bffffffffffffffffffffffffffffffffffffffffffffffffffffffff1916149050919050565b610d3181610d2c610e1d565b610f0d565b50565b5f610d3f83836109c0565b610e135760015f5f8581526020019081526020015f205f015f8473ffffffffffffffffffffffffffffffffffffffff1673ffffffffffffffffffffffffffffffffffffffff1681526020019081526020015f205f6101000a81548160ff021916908315150217905550610db0610e1d565b73ffffffffffffffffffffffffffffffffffffffff168273ffffffffffffffffffffffffffffffffffffffff16847f2f8788117e7eff1d82e926ec794901d17c78024a50270940304540a733656f0d60405160405180910390a460019050610e17565b5f90505b92915050565b5f33905090565b5f610e2f83836109c0565b15610f03575f5f5f8581526020019081526020015f205f015f8473ffffffffffffffffffffffffffffffffffffffff1673ffffffffffffffffffffffffffffffffffffffff1681526020019081526020015f205f6101000a81548160ff021916908315150217905550610ea0610e1d565b73ffffffffffffffffffffffffffffffffffffffff168273ffffffffffffffffffffffffffffffffffffffff16847ff6391f5c32d9c69d2a47ea670b442974b53935d1edc7fd64eb21e047a839171b60405160405180910390a460019050610f07565b5f90505b92915050565b610f1782826109c0565b610f5a5780826040517fe2517d3f000000000000000000000000000000000000000000000000000000008152600401610f51929190611e01565b60405180910390fd5b5050565b5f5ffd5b5f5ffd5b5f819050919050565b610f7881610f66565b8114610f82575f5ffd5b50565b5f81359050610f9381610f6f565b92915050565b5f5ffd5b5f5ffd5b5f5ffd5b5f5f83601f840112610fba57610fb9610f99565b5b8235905067ffffffffffffffff811115610fd757610fd6610f9d565b5b602083019150836001820283011115610ff357610ff2610fa1565b5b9250929050565b5f5f5f5f6060858703121561101257611011610f5e565b5b5f61101f87828801610f85565b945050602061103087828801610f85565b935050604085013567ffffffffffffffff81111561105157611050610f62565b5b61105d87828801610fa5565b925092505092959194509250565b5f7fffffffff0000000000000000000000000000000000000000000000000000000082169050919050565b61109f8161106b565b81146110a9575f5ffd5b50565b5f813590506110ba81611096565b92915050565b5f602082840312156110d5576110d4610f5e565b5b5f6110e2848285016110ac565b91505092915050565b5f8115159050919050565b6110ff816110eb565b82525050565b5f6020820190506111185f8301846110f6565b92915050565b5f6020828403121561113357611132610f5e565b5b5f61114084828501610f85565b91505092915050565b61115281610f66565b82525050565b5f81519050919050565b5f82825260208201905092915050565b8281835e5f83830152505050565b5f601f19601f8301169050919050565b5f61119a82611158565b6111a48185611162565b93506111b4818560208601611172565b6111bd81611180565b840191505092915050565b5f60c0820190506111db5f830189611149565b81810360208301526111ed8188611190565b90506111fc6040830187611149565b6112096060830186611149565b6112166080830185611149565b61122360a08301846110f6565b979650505050505050565b5f819050919050565b6112408161122e565b811461124a575f5ffd5b50565b5f8135905061125b81611237565b92915050565b5f6020828403121561127657611275610f5e565b5b5f6112838482850161124d565b91505092915050565b6112958161122e565b82525050565b5f6020820190506112ae5f83018461128c565b92915050565b5f73ffffffffffffffffffffffffffffffffffffffff82169050919050565b5f6112dd826112b4565b9050919050565b6112ed816112d3565b81146112f7575f5ffd5b50565b5f81359050611308816112e4565b92915050565b5f5f6040838503121561132457611323610f5e565b5b5f6113318582860161124d565b9250506020611342858286016112fa565b9150509250929050565b5f5f6040838503121561136257611361610f5e565b5b5f61136f85828601610f85565b9250506020611380858286016112fa565b9150509250929050565b5f5f83601f84011261139f5761139e610f99565b5b8235905067ffffffffffffffff8111156113bc576113bb610f9d565b5b6020830191508360018202830111156113d8576113d7610fa1565b5b9250929050565b5f5f5f5f606085870312156113f7576113f6610f5e565b5b5f85013567ffffffffffffffff81111561141457611413610f62565b5b6114208782880161138a565b9450945050602061143387828801610f85565b925050604061144487828801610f85565b91505092959194509250565b5f6020820190506114635f830184611149565b92915050565b5f819050919050565b5f61148c611487611482846112b4565b611469565b6112b4565b9050919050565b5f61149d82611472565b9050919050565b5f6114ae82611493565b9050919050565b6114be816114a4565b82525050565b5f6020820190506114d75f8301846114b5565b92915050565b7f4576656e74206973206e6f7420616374697665000000000000000000000000005f82015250565b5f611511601383611162565b915061151c826114dd565b602082019050919050565b5f6020820190508181035f83015261153e81611505565b9050919050565b7f4d6178207375626d697373696f6e7320726561636865640000000000000000005f82015250565b5f611579601783611162565b915061158482611545565b602082019050919050565b5f6020820190508181035f8301526115a68161156d565b9050919050565b7f416c7265616479207375626d69747465640000000000000000000000000000005f82015250565b5f6115e1601183611162565b91506115ec826115ad565b602082019050919050565b5f6020820190508181035f83015261160e816115d5565b9050919050565b5f82825260208201905092915050565b828183375f83830152505050565b5f61163e8385611615565b935061164b838584611625565b61165483611180565b840190509392505050565b5f60029050919050565b5f81905092915050565b5f819050919050565b61168581610f66565b82525050565b5f611696838361167c565b60208301905092915050565b5f602082019050919050565b6116b78161165f565b6116c18184611669565b92506116cc82611673565b805f5b838110156116fc5781516116e3878261168b565b96506116ee836116a2565b9250506001810190506116cf565b505050505050565b5f6060820190508181035f83015261171d818587611633565b905061172c60208301846116ae565b949350505050565b61173d816110eb565b8114611747575f5ffd5b50565b5f8151905061175881611734565b92915050565b5f6020828403121561177357611772610f5e565b5b5f6117808482850161174a565b91505092915050565b7f496e76616c6964205a4b2070726f6f66000000000000000000000000000000005f82015250565b5f6117bd601083611162565b91506117c882611789565b602082019050919050565b5f6020820190508181035f8301526117ea816117b1565b9050919050565b5f81905092915050565b50565b5f6118095f836117f1565b9150611814826117fb565b5f82019050919050565b5f611828826117fe565b9150819050919050565b7f4d4f4e207472616e73666572206661696c6564000000000000000000000000005f82015250565b5f611866601383611162565b915061187182611832565b602082019050919050565b5f6020820190508181035f8301526118938161185a565b9050919050565b7f4e487b71000000000000000000000000000000000000000000000000000000005f52602260045260245ffd5b5f60028204905060018216806118de57607f821691505b6020821081036118f1576118f061189a565b5b50919050565b7f4d6178207375626d697373696f6e73206d757374206265203e203000000000005f82015250565b5f61192b601b83611162565b9150611936826118f7565b602082019050919050565b5f6020820190508181035f8301526119588161191f565b9050919050565b7f526577617264206d757374206265203e203000000000000000000000000000005f82015250565b5f611993601283611162565b915061199e8261195f565b602082019050919050565b5f6020820190508181035f8301526119c081611987565b9050919050565b7f4e487b71000000000000000000000000000000000000000000000000000000005f52601160045260245ffd5b5f6119fe82610f66565b9150611a0983610f66565b9250828202611a1781610f66565b91508282048414831517611a2e57611a2d6119c7565b5b5092915050565b7f4d7573742066756e6420656e7469726520706f6f6c2075702066726f6e7400005f82015250565b5f611a69601e83611162565b9150611a7482611a35565b602082019050919050565b5f6020820190508181035f830152611a9681611a5d565b9050919050565b5f611aa782610f66565b91507fffffffffffffffffffffffffffffffffffffffffffffffffffffffffffffffff8203611ad957611ad86119c7565b5b600182019050919050565b7f4e487b71000000000000000000000000000000000000000000000000000000005f52604160045260245ffd5b5f819050815f5260205f209050919050565b5f6020601f8301049050919050565b5f82821b905092915050565b5f60088302611b6d7fffffffffffffffffffffffffffffffffffffffffffffffffffffffffffffffff82611b32565b611b778683611b32565b95508019841693508086168417925050509392505050565b5f611ba9611ba4611b9f84610f66565b611469565b610f66565b9050919050565b5f819050919050565b611bc283611b8f565b611bd6611bce82611bb0565b848454611b3e565b825550505050565b5f5f905090565b611bed611bde565b611bf8818484611bb9565b505050565b5f5b82811015611c1e57611c135f828401611be5565b600181019050611bff565b505050565b601f821115611c715782821115611c7057611c3d81611b11565b611c4683611b23565b611c4f85611b23565b6020861015611c5c575f90505b808301611c6b82840382611bfd565b505050505b5b505050565b5f82821c905092915050565b5f611c915f1984600802611c76565b1980831691505092915050565b5f611ca98383611c82565b9150826002028217905092915050565b611cc282611158565b67ffffffffffffffff811115611cdb57611cda611ae4565b5b611ce582546118c7565b611cf0828285611c23565b5f60209050601f831160018114611d21575f8415611d0f578287015190505b611d198582611c9e565b865550611d80565b601f198416611d2f86611b11565b5f5b82811015611d5657848901518255600182019150602085019450602081019050611d31565b86831015611d735784890151611d6f601f891682611c82565b8355505b6001600288020188555050505b505050505050565b5f611d938385611162565b9350611da0838584611625565b611da983611180565b840190509392505050565b5f6060820190508181035f830152611dcd818688611d88565b9050611ddc6020830185611149565b611de96040830184611149565b95945050505050565b611dfb816112d3565b82525050565b5f604082019050611e145f830185611df2565b611e21602083018461128c565b939250505056fea264697066735822122015fbf99c6f8e2df7a23f374e4136633d9131ca84e860f82870ae5720ab27c5e064736f6c63430008210033","linkReferences":{}},"methodIdentifiers":{"ADMIN_ROLE()":"75b238fc","DEFAULT_ADMIN_ROLE()":"a217fddf","createEvent(string,uint256,uint256)":"9e9580f6","events(uint256)":"0b791430","getRoleAdmin(bytes32)":"248a9ca3","grantRole(bytes32,address)":"2f2ff15d","hasCitizenSubmitted(uint256,address)":"59c77f66","hasRole(bytes32,address)":"91d14854","nextEventId()":"9f9d903a","renounceRole(bytes32,address)":"36568abe","revokeRole(bytes32,address)":"d547741f","submitNoiseData(uint256,uint256,bytes)":"0012e0cb","supportsInterface(bytes4)":"01ffc9a7","zkVerifier()":"d6df096d"},"id":29}