{"abi":[{"type":"function","name":"verifyProof","inputs":[{"name":"proof","type":"bytes","internalType":"bytes"},{"name":"publicInputs","type":"uint256[2]","internalType":"uint256[2]"}],"outputs":[{"name":"","type":"bool","internalType":"bool"}],"stateMutability":"pure"}],"bytecode":{"object":"0x6080604052348015600e575f5ffd5b506102478061001c5f395ff3fe608060405234801561000f575f5ffd5b5060043610610029575f3560e01c8063e1ff50821461002d575b5f5ffd5b61004760048036038101906100429190610154565b61005d565b60405161005491906101cb565b60405180910390f35b5f5f848490501180156100b15750600160f81b84845f818110610083576100826101e4565b5b9050013560f81c60f81b7effffffffffffffffffffffffffffffffffffffffffffffffffffffffffffff1916145b156100bf57600190506100c3565b5f90505b9392505050565b5f5ffd5b5f5ffd5b5f5ffd5b5f5ffd5b5f5ffd5b5f5f83601f8401126100f3576100f26100d2565b5b8235905067ffffffffffffffff8111156101105761010f6100d6565b5b60208301915083600182028301111561012c5761012b6100da565b5b9250929050565b5f8190508260206002028201111561014e5761014d6100da565b5b92915050565b5f5f5f6060848603121561016b5761016a6100ca565b5b5f84013567ffffffffffffffff811115610188576101876100ce565b5b610194868287016100de565b935093505060206101a786828701610133565b9150509250925092565b5f8115159050919050565b6101c5816101b1565b82525050565b5f6020820190506101de5f8301846101bc565b92915050565b7f4e487b71000000000000000000000000000000000000000000000000000000005f52603260045260245ffdfea2646970667358221220f8441d6be724be8b4ef309f266272024a4053e0ca801bf86d38ea108dc19bc8d64736f6c63430008210033","linkReferences":{}},"methodIdentifiers":{"verifyProof(bytes,uint256[2])":"e1ff5082"},"id":28}